{"hash":"0x9d02ae82490ba368faceb30ec0cf5772134342653e32cf6c0e95a42d2e1b38f8","id":232,"jsonrpc":"2.0","method":"no method with id: 0xb1dc65a4","nonce":0,"params":["0xf9048d808504a817c800835b8d8094a85233c63b9ee964add6f2cffe00fd84eb32338f80b90424b1dc65a40001faf4f2e6ec1fec3baa37db7102fc204857ff7c0163f499e2470a308e1e6a00000000000000000000000000000000000000000000000000000000000001016bbdcd8f648a9db8d10ceea9cd133c2492a5ce816490d8096d80225e3a206e1d00000000000000000000000000000000000000000000000000000000000000e0000000000000000000000000000000000000000000000000000000000000036000000000000000000000000000000000000000000000000000000000000003c0000000000000000000000000000000000000000000000000000000000000000000000000000000000000000000000000000000000000000000000000000002600000000000000000000000000000000000000000000000000000000000000020000000000000000000000000000000000000000000000000000000000000008000000000000000000000000000000000000000000000000000000000000000000000000000000000000000000000000000000000000000000000000000000000000000000000000000000000000000000000000000000000000000000000000000000000000000000000000000000000000000000000000000000000000000400000000000000000000000000000000000000000000000000000000000000160000000000000000000000000000000000000000000000000000000000000000400000000000000000000000071c95911e9a5d330f4d621842ec243ee1343292e000000000000000000000000000000000000000000000001158e460913d000000000000000000000000000008464135c8f25da09e49bc8782676a84730c318bc000000000000000000000000000000000000000000000001158e460913d000000000000000000000000000009fe46736679d2d9a65f0992f2272de9f3c7fa6e000000000000000000000000000000000000000000000005c283d410394100000000000000000000000000000dc64a140aa3e981100a9beca4e685f962f0cf6c9000000000000000000000000000000000000000000000001158e460913d000000000000000000000000000000000000000000000000000000000000000000001000000000000000000000000000000000000000000000000b356733e229244f20000000000000000000000000000000000000000000000000000018bd5d2f1d80000000000000000000000000000000000000000000000000000000000000002336e387191d5ea9a921700eb78011bbd91fdc1dca1c8dc191d99819c909d443a9367f828c959349ca7c93adcc76dde5c0f0c27f2d6cee6964c533bd92468e1e000000000000000000000000000000000000000000000000000000000000000027f13659d623b031953d5a77dcaca2a88f20b0a228768b23b7271f9897b2c41a104234f2994b434f939ced2e97cb323e751284e3e5beb3590a3099f7a4ef7049c820a96a0cf09f88fca3af2093d451c13fa1ca779fa81f5595c0d7312042307d9d4851d56a05c1487c788528a11b2250347285b1b86aee2689962d2447b7110189cb75f839a"],"sendRawTxCount":0,"timestamp":"2024-08-28 08:41:17.686933 -0400 EDT m=+98.855147168","to":"0xa85233C63b9Ee964Add6F2cffe00Fd84eb32338f","value":0},
