{"hash":"0x29d999a47cdc950609f8375d6ef71713d6d4ec2601fe0c7fb76afbcc884e002e","id":332,"inputs":[[[0,1,47,251,188,123,46,239,145,45,191,45,137,158,4,152,58,171,189,169,240,190,156,40,118,189,158,162,128,54,180,140],[0,0,0,0,0,0,0,0,0,0,0,0,0,0,0,0,0,0,0,0,0,0,0,0,0,0,0,0,0,0,1,1],[61,200,215,72,184,120,139,58,182,152,167,225,51,154,202,228,249,206,163,135,251,211,3,221,86,208,234,204,90,209,171,215]],"AAAAAAAAAAAAAAAAAAAAAAAAAAAAAAAAAAAAAAAAACAAAAAAAAAAAAAAAAAAAAAAAAAAAAAAAAAAAAAAAAAAgAAAAAAAAAAAAAAAAAAAAAAAAAAAAAAAAAAAAAAAAAAAAAAAAAAAAAAAAAAAAAAAAAAAAAAAAAAAAAAAAAAAAAAAAAAAAAAAAAAAAAAAAAAAAAAAAAAAAAAAAAAAAAAAAAAAAAAAAAAAAAAAAAAAAAAAAAAAAAAAAAAAAAAAAABAAAAAAAAAAAAAAAAAAAAAAAAAAAAAAAAAAAAAAAAAAWAAAAAAAAAAAAAAAAAAAAAAAAAAAAAAAAAAAAAAAAAABAAAAAAAAAAAAAAAAF+9sjFWeK/ss2fwMtk/ZC9kGAqjAAAAAAAAAAAAAAAAAAAAAAAAAAAAAAABFY5GCRPQAAAAAAAAAAAAAAAAAACUizxluJ3wtIlKvpHm0C/leYNPjwAAAAAAAAAAAAAAAAAAAAAAAAAAAAAAXCg9QQOUEAAAAAAAAAAAAAAAAAAAvPJpQ8AZfS7g5dBccWvmDMJ2FQgAAAAAAAAAAAAAAAAAAAAAAAAAAAAAAAEVjkYJE9AAAAAAAAAAAAAAAAAAAOfxcl53NM4oj4Nn4bsUPpC7PwUSAAAAAAAAAAAAAAAAAAAAAAAAAAAAAAABFY5GCRPQAAAAAAAAAAAAAAAAAAAAAAAAAAAAAAAAAAAAAAAAAAAAAQAAAAAAAAAAAAAAAAAAAAAAAAAAAAAAAC7mNJUe9xtGAAAAAAAAAAAAAAAAAAAAAAAAAAAAAAAAAAAe7D3sIAA=",[[161,35,196,77,254,187,90,94,31,175,32,210,71,47,39,12,158,180,196,106,95,182,252,246,211,80,18,182,14,131,31,134],[129,212,193,74,199,57,91,23,44,119,224,203,75,47,27,130,231,245,164,186,93,83,234,2,1,204,63,14,218,192,159,6]],[[9,215,29,65,212,179,55,2,72,234,187,47,26,2,89,229,157,54,91,189,85,217,217,211,196,103,245,39,138,174,254,38],[6,108,227,177,69,87,235,80,120,145,29,26,103,52,108,19,90,148,208,211,236,91,36,232,107,117,139,137,54,60,177,191]],[0,0,0,0,0,0,0,0,0,0,0,0,0,0,0,0,0,0,0,0,0,0,0,0,0,0,0,0,0,0,0,0]],"jsonrpc":"2.0","method":"transmit","nonce":0,"params":["0xf9048c80843b9bae86835b8d80941e2f4432bfef9e9ad39da6d272f4aff33629c77080b90424b1dc65a400012ffbbc7b2eef912dbf2d899e04983aabbda9f0be9c2876bd9ea28036b48c00000000000000000000000000000000000000000000000000000000000001013dc8d748b8788b3ab698a7e1339acae4f9cea387fbd303dd56d0eacc5ad1abd700000000000000000000000000000000000000000000000000000000000000e0000000000000000000000000000000000000000000000000000000000000036000000000000000000000000000000000000000000000000000000000000003c000000000000000000000000000000000000000000000000000000000000000000000000000000000000000000000000000000000000000000000000000000260000000000000000000000000000000000000000000000000000000000000002000000000000000000000000000000000000000000000000000000000000000800000000000000000000000000000000000000000000000000000000000000000000000000000000000000000000000000000000000000000000000000000000000000000000000000000000000000000000000000000000000000000000000000000000000000000000000000000000000000000000000000000000000000040000000000000000000000000000000000000000000000000000000000000016000000000000000000000000000000000000000000000000000000000000000040000000000000000000000005fbdb2315678afecb367f032d93f642f64180aa3000000000000000000000000000000000000000000000001158e460913d00000000000000000000000000000948b3c65b89df0b4894abe91e6d02fe579834f8f00000000000000000000000000000000000000000000005c283d410394100000000000000000000000000000bcf26943c0197d2ee0e5d05c716be60cc2761508000000000000000000000000000000000000000000000001158e460913d00000000000000000000000000000e7f1725e7734ce288f8367e1bb143e90bb3f0512000000000000000000000000000000000000000000000001158e460913d0000000000000000000000000000000000000000000000000000000000000000000010000000000000000000000000000000000000000000000002ee634951ef71b4600000000000000000000000000000000000000000000000000001eec3dec20000000000000000000000000000000000000000000000000000000000000000002a123c44dfebb5a5e1faf20d2472f270c9eb4c46a5fb6fcf6d35012b60e831f8681d4c14ac7395b172c77e0cb4b2f1b82e7f5a4ba5d53ea0201cc3f0edac09f06000000000000000000000000000000000000000000000000000000000000000209d71d41d4b3370248eabb2f1a0259e59d365bbd55d9d9d3c467f5278aaefe26066ce3b14557eb5078911d1a67346c135a94d0d3ec5b24e86b758b89363cb1bf821266a0a5620daa4201dd78fc6e14cda906cd8a25d3887e3bb5e7ce15ac47f828e4fc3ba006910210a503715d1ee5884e877bc8277354d3d09b3f021d2e82cad5c934ce48"],"sendRawTxCount":0,"timestamp":"2024-08-28 08:41:17.677892 -0400 EDT m=+98.846106626","to":"0x1e2F4432bFeF9E9Ad39DA6d272F4aFf33629c770","value":0},
